:100000000C9443000C9420230C9420230C94202364
:100010000C9420230C9420230C9420230C94202354
:100020000C9420230C9420230C9420230C94202344
:100030000C9420230C9420230C9420230C94202334
:100040000C9420230C9420230C9420230C94202324
:100050000C9420230C9420230C9420230C94202314
:100060000C9420230C9420230100018B80018B0130
:100070008F00464E018F019F80019F01A1004652D3
:1000800001A101A2800011241FBECFEFD8E0DEBF86
:10009000CDBFE8E6F0E040E017C0B591A5913591FD
:1000A0002591059107FD0CC095918591EF01F92FE0
:1000B000E82F05900D92A217B307D9F7FE0104C0EF
:1000C0001D92A217B307E1F7E538F40731F70E9454
:0A00D0000A220C948F22F894FFCF4F
:1000DA0045535441444F2054520043414C43554CDC
:1000EA0041444F0043756164726520706F74656E98
:1000FA0063696F6D6574726F7320792070726573AE
:10010A00696F6E652042310050726573696F6E6562
:10011A00204231005643453A2000252E33660045D9
:10012A006C2056636520657374610064656E747231
:10013A006F2064656C2072616E676F00566365207C
:10014A0066756572612064652072616E676F2C63E3
:10015A00616D62696520706F74656E63696F6D6544
:10016A0074726F73200070726573696F6E652042D6
:10017A003100424554412044454C2054523A200013
:10018A005375626120656C20566365207920707210
:10019A006573696F6E6520423100564345313A20D6
:1001AA0000564345323A20005641462063616C634B
:1001BA00756C61646F004231205245494E4943498A
:1001CA00415200423220524553554C5441444F53F8
:1001DA0000434152414354455249535449434153C0
:1001EA00005452204441D141444F005452414E538D
:1001FA004953544F52204E504E005452414E534987
:10020A0053544F5220504E5000426574613A2000B8
:10021A005641463A20005600726F3A2000252E3188
:07022A0066006F686D7300B0
:1002310068076C094C836A9074A07AC00080688852
:0602410000846C820081C4
:10024700494E4600696E66004E414E006E616E0073
:10025700494E4600696E66004E414E006E616E0063
:07026700286E756C6C290084
:06026E00286E696C2900F6
:100274008F929F92AF92BF92CF92DF92EF92FF92B2
:10028400CF93DF932B980E94A42260E080E00E9429
:100294009A222AE130E04AE851E060E080E291E00D
:1002A4000E94222180E291E00E94481C0E94A42224
:1002B40060E080E00E949A222CE030E042E151E0CC
:1002C40060E080E291E00E942221C0E2D1E0DF936D
:1002D400CF930E94D22081E00E9496219093150131
:1002E400809314010E94AA2190939A01809399010A
:1002F400BC01990F880B990B0E94FD1E20E030E091
:1003040040EA50E40E94192320E030EC4FE754E423
:100314000E94152360936B0170936C0180936D01AF
:1003240090936E0160E081E00E949A2280916E01B8
:100334008F9380916D018F9380916C018F93809145
:100344006B018F9384E291E0A0E0AF939F938F932E
:10035400DF93CF930E94E621DF93CF930E94D220B4
:100364008DB79EB70D960FB6F8949EBF0FBE8DBF86
:100374000F2EF4E2CF2EF1E0DF2EF0E0EF2EF02D81
:10038400C0E0D1E0E6C081E00E949621909315017F
:10039400809314010E94AA2190939A018093990159
:1003A400BC01990F880B990B0E94FD1E20E030E0E0
:1003B40040EA50E40E94192320E030EC4FE754E473
:1003C4000E941523262F372F462F572F682F792F5A
:1003D40040936B0150936C0160936D0170936E01B7
:1003E4009F938F933F932F93EF92DF92CF92DF935C
:1003F400CF930E94E62160E081E00E949A2227E0E8
:1004040030E044EA51E060E080E291E00E94222181
:1004140080E291E09F938F930E94D22066E081E076
:100424000E949A22DF93CF930E94D2209FEF23EC65
:1004340039E0915020403040E1F700C000008DB712
:100444009EB70D960FB6F8949EBF0FBE8DBF8090D9
:100454006B0190906C01A0906D01B0906E0120E052
:1004640030E040E85FE3C501B4010E940323882320
:100474000CF489CF20E030E040E050E4C501B40141
:100484000E94082318160CF47ECF81E00E94962166
:1004940090931501809314010E94AA2190939A01CC
:1004A40080939901BC01990F880B990B0E94FD1E42
:1004B40020E030E040EA50E40E94192320E030ECD0
:1004C4004FE754E40E941523262F372F462F572F2A
:1004D400682F792F40936B0150936C0160936D01E9
:1004E40070936E019F938F933F932F93EF92DF92BC
:1004F400CF92DF93CF930E94E62160E081E00E94D7
:100504009A2227E030E044EA51E060E080E291E0A2
:100514000E94222180E291E09F938F930E94D22037
:1005240066E081E00E949A22DF93CF930E94D2205A
:100534009FEF23EC39E0915020403040E1F700C0B8
:1005440000008DB79EB70D960FB6F8949EBF0FBEF0
:100554008DBF0E942C22892B09F079CF2B9A9FEF13
:1005640023ED30E3915020403040E1F700C000001B
:1005740081E00E9496219093150180931401909339
:100584009C0180939B01BC01990F880B990B0E94DD
:10059400FD1E20E030E040EA50E40E94192320E0F0
:1005A40030EC4FE754E40E94152360936F0170937D
:1005B4007001809371019093720183E00E949621EF
:1005C400909315018093140190939201809391016B
:1005D400BC01990F880B990B0E94FD1E20E030E0AE
:1005E40040EA50E40E94192320E030EC4FE754E441
:1005F4000E941523609377017093780180937901A9
:1006040090937A0120918F0130919001213031052E
:10061400C9F420916F0130917001409171015091A2
:1006240072010E94CF2220E030E04AE754E40E94A5
:100634001523609363017093640180936501909323
:1006440066011DC022303105D1F49B01AC016091DB
:100654006F017091700180917101909172010E94FB
:10066400CF2220E030E04AE754E40E94152360934F
:1006740063017093640180936501909366012B98E4
:100684000E94A42260E080E00E949A222AE130E0E5
:100694004AE851E060E080E291E00E94222180E299
:1006A40091E00E94481C0E94A42260E080E00E9425
:1006B4009A222CE030E040E751E060E080E291E0F3
:1006C4000E94222180E291E09F938F930E94D22086
:1006D40081E00E94962190931501809314010E9459
:1006E400AA2190939A0180939901BC01990F880BD8
:1006F400990B0E94FD1E20E030E040EA50E40E9485
:10070400192320E030EC4FE754E40E941523609352
:100714006701709368018093690190936A010F9057
:100724000F900F2EF4E2CF2EF1E0DF2EF0E0EF2E4B
:10073400F02DC0E0D1E0E5C081E00E9496219093C5
:100744001501809314010E94AA2190939A01809329
:100754009901BC01990F880B990B0E94FD1E20E0A2
:1007640030E040EA50E40E94192320E030EC4FE7E7
:1007740054E40E941523262F372F462F572F682F16
:10078400792F4093670150936801609369017093D6
:100794006A019F938F933F932F93EF92DF92CF92AF
:1007A400DF93CF930E94E62160E081E00E949A22C9
:1007B40027E030E04BEA51E060E080E291E00E9403
:1007C400222180E291E09F938F930E94D22066E0E1
:1007D40081E00E949A22DF93CF930E94D2208FEF70
:1007E40093EC29E0815090402040E1F700C00000E4
:1007F4002DEC3CEC4CEC5DE360916B0170916C0171
:1008040080916D0190916E010E94D0222DB73EB768
:10081400235F3F4F0FB6F8943EBF0FBE2DBF20910C
:100824006701309168014091690150916A010E9409
:10083400082318160CF480CF81E00E94962190932F
:100844001501809314010E94AA2190939A01809328
:100854009901BC01990F880B990B0E94FD1E20E0A1
:1008640030E040EA50E40E94192320E030EC4FE7E6
:1008740054E40E941523262F372F462F572F682F15
:10088400792F4093670150936801609369017093D5
:100894006A019F938F933F932F93EF92DF92CF92AE
:1008A400DF93CF930E94E62160E081E00E949A22C8
:1008B40027E030E04BEA51E060E080E291E00E9402
:1008C400222180E291E09F938F930E94D22066E0E0
:1008D40081E00E949A22DF93CF930E94D2203FEFBF
:1008E40083EC99E0315080409040E1F700C0000073
:1008F4002DB73EB7235F3F4F0FB6F8943EBF0FBEF0
:100904002DBF0E942C22892BE1F02DEC3CEC4CEC09
:100914005DE360916B0170916C0180916D01909128
:100924006E010E94D02220916701309168014091AC
:10093400690150916A010E94082318160CF4FCCE38
:100944007BCF2B9A3FEF89E698E13150804090406D
:10095400E1F700C0000081E00E9496219093150108
:100964008093140190939C0180939B01BC01990F87
:10097400880B990B0E94FD1E20E030E040EA50E411
:100984000E94192320E030EC4FE754E40E94152321
:1009940060936F0170937001809371019093720161
:1009A40083E00E9496219093150180931401909303
:1009B400920180939101BC01990F880B990B0E94BD
:1009C400FD1E20E030E040EA50E40E94192320E0BC
:1009D40030EC4FE754E40E94152360937701709341
:1009E40078018093790190937A0120918F0130915D
:1009F400900121303105C9F420916F0130917001CB
:100A040040917101509172010E94CF2220E030E0A8
:100A14004AE754E40E94152360935F0170936001D8
:100A240080936101909362011DC022303105D1F49D
:100A34009B01AC0160916F01709170018091710113
:100A4400909172010E94CF2220E030E04AE754E402
:100A54000E94152360935F0170936001809361018C
:100A640090936201C0906701D0906801E0906901A1
:100A7400F0906A0180906B0190906C01A0906D01E0
:100A8400B0906E01A5019401C701B6010E9408232C
:100A940018164CF5A5019401C701B6010E94CF2296
:100AA4006B017C01209163013091640140916501E7
:100AB4005091660160915F017091600180916101C4
:100AC400909162010E94CF229B01AC01C701B60143
:100AD4000E94152360935B0170935C0180935D0118
:100AE40090935E0128C0A7019601C501B4010E943C
:100AF400CF226B017C0120915F0130916001409114
:100B0400610150916201609163017091640180916F
:100B14006501909166010E94CF229B01AC01C7013F
:100B2400B6010E94152360935B0170935C0180936E
:100B34005D0190935E0120915B0130915C014091D5
:100B44005D0150915E016091630170916401809137
:100B54006501909166010E941923A50194010E94E8
:100B6400CF2260937F0170938001809381019093E1
:100B740082010E94A42260E080E00E949A222EE07A
:100B840030E042EB51E060E080E291E00E942221FB
:100B9400C0E2D1E0DF93CF930E94D22060E081E0F5
:100BA4000E949A22809182018F93809181018F9378
:100BB400809180018F9380917F018F9384E291E0F3
:100BC400A0E0AF939F938F93DF93CF930E94E6218E
:100BD400DF93CF930E94D2208FEF9DE329E48150CD
:100BE40090402040E1F700C000008DB79EB70D96FD
:100BF4000FB6F8949EBF0FBE8DBFDF91CF91FF90CB
:100C0400EF90DF90CF90BF90AF909F908F9008951A
:100C1400A6E2B0E0E0E1F6E00C94B62098A38F8F52
:100C24007F8B6E8B288FFB010190F081E02DFA877A
:100C3400E987FB0102811381248135813B8B2A8B57
:100C4400808591859AA389A30680F781E02DFA8394
:100C5400E983FA0180809180A280B38020E030E0B3
:100C6400A901C501B4010E94032387FF06C0B7FA96
:100C7400B094B7F8B0948DE204C0F985F2FF69C36B
:100C84008BE2E981FA8180832A893B8921503109E9
:100C94003C832B8341E050E0598B488B06C08A8902
:100CA4009B899C838B83198A188AD501C401BF77D9
:100CB4000097E0E8AE07EFE7BE07F1F4F88D2F2FB9
:100CC400FF0F330B2154310989819A81488959894D
:100CD400840F951F2A31310520F447E452E060E087
:100CE40003C04BE452E060E00E945B2289819A8158
:100CF4003C01E0E88E2E1AC30197A048BF47F0F0EC
:100D0400488D242F440F330B2154310989819A8152
:100D1400E889F9898E0F9F1F2A31310520F44FE4A9
:100D240052E060E003C043E552E060E00E945B22D1
:100D340029813A81390140E8842EF8C220E030E06C
:100D4400A901C501B4010E940323C12CD12C20E8C0
:100D5400E22E2FE3F22E212C312C882309F487C0B4
:100D64008D829E82AF82B88620E030E040E251E47A
:100D7400C701B6010E9419232B013C01D501C4010E
:100D840084199509A609B709B7FF07C0B095A095BE
:100D9400909581959F4FAF4FBF4F0297A105B10525
:100DA40034F45FEF251A350A73016201DDCFA50122
:100DB4009401C301B2010E94032387FDF2CF8D8108
:100DC4009E81AF81B8858C199D09AE09BF09019632
:100DD400A11DB11D0397A105B10508F446C01E82EB
:100DE4001D82A5019401C701B6010E9408231816AB
:100DF400F4F584ED28168EEF3806E4F4ED81FE81D7
:100E0400EF2BC1F420E030E040E85AE5C501B4011D
:100E14000E9419234B015C0120E030E040E85AE5D0
:100E2400C701B6010E9419236B017C0121E030E067
:100E34003E832D8320E030E040E251E4C701B60157
:100E44000E9415236B017C0131E0231A3108D5017E
:100E5400C4018C199D09AE09BF090196A11DB11DDC
:100E64000397A105B10508F0BCCF46015701488D91
:100E7400042E000C550B598F488FCA010E94C022C2
:100E84008A8F17FD03C01E830D8304C086E090E0A3
:100E94009E838D839A8D973639F4012B41F4E1E0DA
:100EA400F0E0FE83ED8303C04A8D4F8710C02CEF22
:100EB40022162FEF32060CF451C22D813E812216E8
:100EC40033060CF04BC237FE4CC256E65F878D8169
:100ED4009E8101969E838D839F85963699F437FE75
:100EE40008C0C12CD12C90E8E92E9FE3F92E212CC7
:100EF400312CEA8DE73631F02D813E81220D331DF0
:100F04003E832D831C2DDDA2EBA20F2D8B869C86A8
:100F1400AD86BE861D8A1C8A8C899D89ED81FE81E1
:100F24008E179F07DCF5212F3DA14BA1502F6B8518
:100F34007C858D859E850E9415230E9468182B014F
:100F44003C010E94EB226B8FA3019201612F7DA1D2
:100F54008BA1902F0E9419232B853C854D855E859E
:100F64000E94CF229B01AC0150582B873C874D87B0
:100F74005E8720E030E040E251E4612F7DA18BA147
:100F8400902F0E941523162F7DA38BA3092F4C8924
:100F94005D894F5F5F4F5D8B4C8BBECF20E030E0AF
:100FA40040EA50E4612F7DA18BA1902F0E94192368
:100FB4002B013C019B01AC016B857C858D859E8555
:100FC4000E94032387FD0DC0A30192016B857C85DC
:100FD4008D859E850E940323811106C0FB8DF0FD43
:100FE40003C0412C512C3201A5019401C301B2016B
:100FF4000E94D0224B015C0120E030E040E251E449
:10100400C701B6010E9419236B877C8B182F092F07
:101014009B01482F592FC501B4010E94082387FD65
:1010240011C02FEF221A320A3F85363679F44D81EA
:101034005E814F5F5F4F5E834D835B855DA38C89CB
:101044008EA30BC0CB86DC8A1E2D0F2D9F85953673
:1010540031F0EB85EDA3FC89FEA3710106C02B855D
:101064002DA33C893EA3E12CF12C48885988C12C3E
:10107400D12C1D8A1C8A1C861B8649855A85407181
:1010840055275CA34BA32B853C854D815E8124179A
:10109400350734F08C899D89892B09F497C0A3C046
:1010A4003201EE89FF898085918505974816590696
:1010B40088F72DA13EA1412F502FC501B4010E94F4
:1010C40015230E9468186B8F7C8F8D8F9E8F0E94D2
:1010D400EB226A30710514F069E070E08BA19CA1E9
:1010E400892B69F46115710551F49A8D973639F499
:1010F400F7FE05C03601EFEF6E1A7E0A3BC02C895D
:101104003D89232BA1F4F7FE12C03FEF431A530A83
:10111400E981FA81E60DF71D4EE240838B819C81C3
:1011240001979C838B83E1E0F0E0FD8BEC8BE981FC
:10113400FA81E40DF51D36016114710431F020E3E8
:10114400219331E0631A7108F7CFC601840D951D10
:101154002B813C812C193D092C014FEF441A540A70
:10116400E981FA81E80FF91F605D6083C901019785
:101174009C838B832B8D3C8D4D8D5E8D6DA17EA1CB
:10118400812F902F0E941923A50194010E94CF2240
:101194004B015C01B7FAB094B7F8B09420E030E0AA
:1011A40040E251E46DA17EA1812F902F0E9415236E
:1011B4006DA37EA3182F092F91E0E91AF108EB859E
:1011C400FC853196FC87EB8763015DCFF985F4FFDD
:1011D4000AC0E981FA81E40DF51D8EE28083920153
:1011E4002F5F3F4F290149815A81440D551D5E836C
:1011F4004D83FA011082FF85F53609F061C0E9815B
:10120400FA8129A13AA1E20FF31F3197108237FE28
:1012140006C031942194310801E010E002C000E0DE
:1012240010E0E9A1FAA1319749815A81E40FF51F31
:1012340022E030E08AE0E82EF12CCF0149815A8186
:10124400841B950B2114310479F0C101B7010E946C
:10125400BE21805D82931B01215031098B819C81C9
:1012640001979C838B83E9CF1216130674F3FC0158
:101274003197E40FF51F012B11F42BE201C02DE28D
:1012840020830297E981FA81E80FF91F288D398DAF
:10129400215431092A31310510F025E601C025E435
:1012A40020832B813C81225031093C832B834816B7
:1012B400590634F4AF0160E88D819E810E945B225F
:1012C40049815A813A0180E8882E998591FF2EC080
:1012D40090FD2CC0EB81FC811E161F063CF5882D69
:1012E400B3010E946B2129813A81820F931F9C01D3
:1012F40049815A81241B350BE889F9892E173F0748
:101304004CF0FC012081EB81FC81E80FF91F208364
:101314000197EDCF4B815C8160E370E089819A8114
:101324008E0F9F1F0E94AE221B8A1A8A882DB3013A
:101334000E946B21E984FA840A891B899C01682D27
:10134400A3018F8D98A10E94DE1DA696E2E10C9464
:10135400ED20598553FFA3CC80E293CC35E63F873B
:08136400D1CD46E64F87CECD46
:10136C00A0E2B0E0ECEBF9E00C94B6209B8F8A8FF6
:10137C00FB01298320812D8331813C8F82819381D4
:10138C009B8B8A8B248135813B872A87808591852D
:10139C009E8F8D8F46805780FA01C080D180E2806D
:1013AC00F38020E030E0A901C701B6010E940323BD
:1013BC0087FF06C0F7FAF094F7F8F0948DE204C0BA
:1013CC005D8152FFF4C28BE2F20180832A853B855A
:1013DC00215031093987288741E050E05C834B83E9
:1013EC0006C08A859B85998788871C821B82B701DA
:1013FC00A6017F77E9810E2E000CFF0BF98BE88B91
:10140C0041155105F0E86F07FFE77F07C1F4288904
:10141C003989215431098B819C81840D951D2A3188
:10142C00310520F447E552E060E003C04BE552E0A3
:10143C0060E00E945B226BE572E080E01CC08B8157
:10144C009C81840D951D4130510560487F47E8F023
:10145C0028893989215431092A31310520F44FE585
:10146C0052E060E003C043E652E060E00E945B2281
:10147C0063E672E080E00E946B21A20160E8ED80DF
:10148C00FC8C0A851B859C018AC220E3FC0120830D
:10149C00EB81FC813196E40DF51D2B813C812E5F97
:1014AC003F4F3C832B834889598941545109598FAB
:1014BC00488F4A31510510F088E701C088E58083D8
:1014CC0020E030E0A901C701B6010E940323612C82
:1014DC00712C1F8E1982882309F464C050E858A31C
:1014EC008FE38A832F8D398148A15A816F8D798141
:1014FC0088A19A810E94D0225B018C01A7019601E0
:10150C000E94082318160CF442C09FEF691A790A3E
:10151C00AF8EB98208A31A83E5CF20E030E040E01B
:10152C005FE36F8D798188A19A810E94192320E055
:10153C0030E0A9010E940323811118C020E030E0A3
:10154C0040E85AE56F8D798188A19A810E94192310
:10155C006F8F798388A39A8320E030E040E85AE5C6
:10156C00C701B6010E9419236B017C0120E030E019
:10157C0040E05FE36F8D798188A19A810E941923E5
:10158C006F8F798388A39A83A1E06A1A71082F8DD3
:10159C00398148A15A81C701B6010E94032387FDF6
:1015AC00BCCF04C0E0E8E8A3FFE3FA832A893B89B7
:1015BC0037FD02C0C90102C088E190E0AC014F5F69
:1015CC005F4F5D874C878F8C9980A8A0BA801601DD
:1015DC0087011F821E829401A501B101C8010E94DE
:1015EC0015230E9468186C8B7D8B8E8B9F8B9401BE
:1015FC00A5010E9419239B01AC01B101C8010E94F5
:10160C00CF221B018C0120E030E040E85DE3B40107
:10161C00C5010E9419234B015C018E819F810196AB
:10162C009F838E83EA89FB89F7FF09C020E030E0B5
:10163C00A901B101C8010E940323882341F02C8524
:10164C003D854E815F81421753072CF204C08E8179
:10165C009F819D878C8720E030E040E051E4B4010D
:10166C00C5010E9419234B015C019B01AC01B10126
:10167C00C8010E94032387FD12C0A5019401B1018A
:10168C00C8010E94032381110DC06C897D898E894C
:10169C009F890E94EB2261707727672B19F4812CAC
:1016AC00912C5401A5019401C701B6010E94D022CE
:1016BC006B017C01DC01CB01BF770097A048BF47D1
:1016CC0009F4A5CE28843984F2E02F1A31082C8530
:1016DC003D85319521953109398B288B0B811C81E6
:1016EC00A12CB12C1F821E82812C912C4D8D5E8DD4
:1016FC00455051095D8B4C8B19870887EC89FD8906
:10170C000E171F0708F092C02F8D398148A15A81FE
:10171C00C701B6010E9415230E9468186C877D874B
:10172C008E879F870E94EB22AB016115710539F4FE
:10173C008114910421F05FEFA51AB50A4EC0EE8119
:10174C00FF81EF2B91F48114910479F00F5F1F4FFF
:10175C00E885F985E40DF51D2EE2208331E0231A8E
:10176C003108E1E0F0E0FF83EE83F201E00FF11FBE
:10177C0095012115310529F0A0E3A19321503109E0
:10178C00F8CFF801EA0DFB1DF987E8872A183B080A
:10179C004A3051051CF4605D7F4F02C0695A7F4F7F
:1017AC00288D398D2A31310550F4CB018062815658
:1017BC0091094A9720F4CB010E94B722BC010885FD
:1017CC0019850F5F1F4FE885F985E40DF51D6083C2
:1017DC0031E0231A3108A12CB12C2F8D398148A16D
:1017EC005A816C857D858E859F850E9419239B016E
:1017FC00AC01C701B6010E94CF226B017C0120E035
:10180C0030E040E85DE36F8D798188A19A810E9478
:10181C0019236F8F798388A39A8341E0841A9108E6
:10182C00888999898815990509F066CF2E813F81A1
:10183C00232B51F5F201E00FF11FA114B104E9F0D3
:10184C004A895B8914161506C4F45D8150FD15C0D8
:10185C008EE28083F8013196E40DF51DC50120E37D
:10186C0021930197E9F70A0D1B1D0F5F1F4FC5014F
:10187C0080959095280E391E07C08D8184FF04C079
:10188C008EE280830F5F1F4FF201E00FF11FFF8389
:10189C00EE831082ED8DFE8D3197E40DF51D1082D7
:1018AC0077FE07C0719461947108EE24E394F12CD7
:1018BC0002C0E12CF12C21E030E08AE0C82ED12CC2
:1018CC00CF01841995096114710469F0C301B60143
:1018DC000E94BE21805D82933B012150310941E081
:1018EC00241A3108EDCF2130310581F3FC013197F9
:1018FC00E40DF51DEF2811F42BE201C02DE220833D
:10190C000297F201E80FF91F288D398D2A31310524
:10191C0010F020E701C020E520830817190734F4E4
:10192C00AF0160E88E819F810E945B22320130E81A
:10193C00832E4D8141FF28C040FD26C052E0251A60
:10194C0031081214130404F5882DB3010E946B2185
:10195C00840D951D9C01241935094B815C8124173C
:10196C0035073CF0FC012081E20DF31D208301972B
:10197C00F1CFA10160E370E08B819C81840D951DFA
:10198C000E94AE221B861A86882DB3010E946B2101
:10199C00ED80FC8C0A851B859C01682DA3018A8D2A
:1019AC009B8D0E94DE1DA096E2E10C94ED205D81E2
:0819BC0053FF17CD80E208CDB6
:1019C4002F923F924F926F927F928F929F92AF92FB
:1019D400BF92CF92DF92EF92FF920F931F93CF9318
:1019E400DF93CDB7DEB762970FB6F894DEBF0FBEB4
:1019F400CDBF4C016B0138011A8219828FEF9FEF22
:101A04009C838B831E821D8258874F833A87298744
:101A1400A12CB12CD6012D913D914C912A0D3B1D49
:101A2400411DB7FC4A95F901849147FD80818111DC
:101A340016C0F601208331834283F901849147FD66
:101A44008081853209F00FC21901442EFFEF2F1A4D
:101A54003F0A4F0AD6012D923D924C921BC085320B
:101A640041F3B401082E000C990B0E94731E4FEF32
:101A7400A41AB40ACFCF2C32DCF02D3229F52981F7
:101A84003A8121603A8329830196A11DF60180835E
:101A94009183A283F60180819181A281FC0124912A
:101AA400A7FD20812B3239F729813A812460EACFBE
:101AB400203221F429813A812860E4CF233251F481
:101AC40029813A812061DECF203321F429813A81B2
:101AD4002260D8CFB701C6010E94751F9E838D83F3
:101AE40097FF0BC029813A81F1E02F273A8329839C
:101AF4009195819591099E838D8389819A8180FF37
:101B040003C08D7F9A838983F60180819181A281AC
:101B1400FC012491A7FD20812E3261F40196A11DC0
:101B2400F60180839183A283B701C6010E94751FC9
:101B34009C838B83C6010E948F1D182FD6012C9184
:101B440011968C91119712969C91E22FF82F849103
:101B540097FD8081082E000C990B0E94C0228936C3
:101B640009F44AC084F4833609F419C134F4853283
:101B740009F445C18136E1F050C18436E9F1883673
:101B84000CF4E9C04AC1803709F4B0C03CF48E3685
:101B940009F4D6C08F3609F46DC03FC1853709F406
:101BA4004AC0883709F485C0833709F036C10DC1AE
:101BB400612F70E0A701CE010B960E945A20892B59
:101BC40009F448C1F60180819181A2819C014A2FC8
:101BD4002F5F3F4F4F4F208331834283FC01249179
:101BE400A7FD2081AE01455F5F4FBE016F5F7F4F50
:101BF400C4010E94B6092BC1612F70E0970141E036
:101C040050E0CE010B960E943E16892B09F422C1A6
:101C1400F60180819181A2810196A11D8083918327
:101C2400A283AE01455F5F4FBE016F5F7F4FC4016A
:101C34000E94FD160CC1612F70E0970140E050E056
:101C4400CE010B960E943E16892B09F403C1F601BE
:101C540080819181A2810196A11D80839183A283B9
:101C6400AE01455F5F4FBE016F5F7F4FC4010E94AD
:101C74009D1BEDC0612F70E0970140E050E0CE0164
:101C84000B960E943E16892B09F4E4C0F60180816C
:101C94009181A2810196A11D80839183A283AE01CB
:101CA400455F5F4FBE016F5F7F4FC4010E94CC1A36
:101CB400CEC0612F70E0970140E050E0CE010B965A
:101CC4000E943E16892B09F4C5C0F60180819181DA
:101CD400A2819C014A2F2F5F3F4F4F4F20833183B6
:101CE4004283FC012491A7FD208120C0970140E09C
:101CF40050E060EF70E0CE010B960E943E16892BF7
:101D040009F4A8C0F60180819181A2810196A11DE8
:101D140080839183A2838B859C85892B31F400E099
:101D240010E02EE632E040E08CC028E7AE01455FCB
:101D34005F4FBE016F5F7F4FC4010E94FE1487C0D6
:101D4400A501460D571D612F70E09701CE010B963A
:101D54000E9401197FC0612F70E0A701CE010B968C
:101D64000E945A20892B09F475C0F6018081918163
:101D7400A2819C014A2F2F5F3F4F4F4F2083318315
:101D84004283FC012491A7FD2081AE01455F5F4F92
:101D9400BE016F5F7F4FC4010E940A0658C010380D
:101DA40009F058C0F60180819181A2810196A11D9C
:101DB40080839183A283D701ED91FC911197CF0188
:101DC40002968D939C93808126C0103809F042C0FE
:101DD400F60180819181A2810196A11D8083918366
:101DE400A283D701ED91FC911197CF0103968D93B6
:101DF4009C9320813181428100E010E022C01038A0
:101E040049F5F6012081318142812F5F3F4F4F4FC9
:101E14002083318342838B870EC085E28B87F60152
:101E24002082318242821A8219821E821D828FEFA1
:101E34009FEF9C838B839E01255F3F4F40E801E029
:101E440010E0BE016F5F7F4FC4010E94381F8A0DEE
:101E54009B1D0AC0F60180819181A2810196A11D7A
:101E640080839183A283C50162960FB6F894DEBF86
:101E74000FBECDBFDF91CF911F910F91FF90EF90D7
:101E8400DF90CF90BF90AF909F908F907F906F9096
:081E94004F903F902F9008953C
:101E9C00CF92DF92EF920F931F93CF93DF9381E05A
:101EAC000E949621909315018093140190939C01AC
:101EBC0080939B010E94AA2190939A01809399018F
:101ECC000E94A42260E080E00E949A2224E230E08A
:101EDC004EEE50E060E080E291E00E94222180E230
:101EEC0091E00E94481C0E94A42260E080E00E94C5
:101EFC009A222CE030E042E151E060E080E291E097
:101F0C000E94222180E291E09F938F930E94D22025
:101F1C000F900F900F2EF4E2CF2EF1E0DF2EF0E0B9
:101F2C00EF2EF02D00E011E07CC00E94A42260E0B6
:101F3C0080E00E949A222CE030E042E151E060E027
:101F4C0080E291E00E942221C0E2D1E0DF93CF93A6
:101F5C000E94D22081E00E949621909315018093DB
:101F6C00140190939C0180939B010E94AA21909351
:101F7C009A0180939901BC01990F880B990B0E94CF
:101F8C00FD1E20E030E040EA50E40E94192320E0DE
:101F9C0030EC4FE754E40E94152360938701709353
:101FAC0088018093890190938A0160E081E00E940E
:101FBC009A2226E030E04EE151E060E0CE010E9432
:101FCC002221DF93CF930E94D22080918A018F939C
:101FDC00809189018F93809188018F9380918701E3
:101FEC008F93EF92DF92CF921F930F930E94E62173
:101FFC0064E081E00E949A221F930F930E94D220EA
:10200C008FEF93EC29E0815090402040E1F700C025
:10201C0000008DB79EB70F960FB6F8949EBF0FBEFB
:10202C008DBF0E942C22892B09F07FCF81E00E946A
:10203C009621909315018093140190939C018093A9
:10204C009B010E94AA2190939A01809399018B97EE
:10205C00879708F0E1C00E94A42260E080E00E9413
:10206C009A222CE030E049E251E060E080E291E01D
:10207C000E942221C0E2D1E0DF93CF930E94D220B4
:10208C0060E081E00E949A2221E130E045E351E0DA
:10209C0060E0CE010E942221DF93CF930E94D220D8
:1020AC002B9A2FEF87EA91E6215080409040E1F780
:1020BC0000C000000F900F900F900F90F2C00E9484
:1020CC00A42260E080E00E949A222AE230E046E4FA
:1020DC0051E060E080E291E00E94222180E291E0F8
:1020EC000E94481C0E94A42260E080E00E949A2278
:1020FC002CE030E040E751E060E080E291E00E94AB
:10210C00222180E291E09F938F930E94D2200F9026
:10211C000F907CC00E94A42260E080E00E949A2272
:10212C002CE030E042E151E060E080E291E00E947E
:10213C002221C0E2D1E0DF93CF930E94D22081E034
:10214C000E949621909315018093140190939C0109
:10215C0080939B010E94AA2190939A0180939901EC
:10216C00BC01990F880B990B0E94FD1E20E030E0FA
:10217C0040EA50E40E94192320E030EC4FE754E48D
:10218C000E941523609387017093880180938901C5
:10219C0090938A0160E081E00E949A2226E030E070
:1021AC004EE151E060E0CE010E942221DF93CF93FB
:1021BC000E94D22080918A018F93809189018F9304
:1021CC00809188018F93809187018F93EF92DF929A
:1021DC00CF921F930F930E94E62164E081E00E944E
:1021EC009A221F930F930E94D2208FEF93EC29E039
:1021FC00815090402040E1F700C000008DB79EB7A1
:10220C000F960FB6F8949EBF0FBE8DBF0E942C2266
:10221C00892B09F07FCF0AC00F2EF4E2CF2EF1E00C
:10222C00DF2EF0E0EF2EF02D00E011E0809199010F
:10223C0090919A018A97899708F041CF0E94A42225
:10224C0060E080E00E949A222CE030E049E251E00C
:10225C0060E080E291E00E942221C0E2D1E0DF93B5
:10226C00CF930E94D22060E081E00E949A2221E16B
:10227C0030E045E351E060E0CE010E942221DF9383
:10228C00CF930E94D2202B9A2FEF87EA91E6215010
:10229C0080409040E1F700C000000F900F900F902D
:1022AC000F90DF91CF911F910F91EF90DF90CF9016
:0222BC00089583
:1022BE006F927F928F92CF92DF92EF92CF93DF93B6
:1022CE000E94A4220F2EF4E2CF2EF1E0DF2EF0E0DA
:1022DE00EF2EF02D0F2EF7E26F2EF2E07F2EF0E0B4
:1022EE008F2EF02DD1C10E94A42260E080E00E94CA
:1022FE009A222DE030E040EC51E060E080E291E087
:10230E000E942221C0E2D1E0DF93CF930E94D2201F
:10231E0060E081E00E949A222EE030E04DEC51E028
:10232E0060E0CE010E942221DF93CF930E94D22043
:10233E000E94F9210F900F900F900F90892B09F0AA
:10234E00A3C180918F0190919001039731F50E9466
:10235E00A42260E080E00E949A2220E130E04BED62
:10236E0051E060E0CE010E942221DF93CF930E94C4
:10237E00D22060E081E00E949A222AE030E04BEE0B
:10238E0051E060E0CE010E942221DF93CF930E94A4
:10239E00D2200F900F900F900F9080918F019091FF
:1023AE009001019791F50E94A42260E080E00E94C6
:1023BE009A2220E130E04BED51E060E080E291E0C6
:1023CE000E942221C0E2D1E0DF93CF930E94D2205F
:1023DE0060E081E00E949A222FE030E045EF51E06C
:1023EE0060E0CE010E942221DF93CF930E94D22083
:1023FE002FEF87EA91E6215080409040E1F700C030
:10240E0000000F900F900F900F9080918F01909180
:10241E009001029791F50E94A42260E080E00E9454
:10242E009A2220E130E04BED51E060E080E291E055
:10243E000E942221C0E2D1E0DF93CF930E94D220EE
:10244E0060E081E00E949A222FE030E044E052E00A
:10245E0060E0CE010E942221DF93CF930E94D22012
:10246E008FEF97EA21E6815090402040E1F700C0BF
:10247E0000000F900F900F900F9080918F01909110
:10248E0090010197029708F0FFC00E94A42260E01D
:10249E0080E00E949A2220E130E04BED51E060E0B6
:1024AE0080E291E00E942221C0E2D1E0DF93CF933F
:1024BE000E94D22060E081E00E949A2227E030E064
:1024CE0043E152E060E0CE010E942221DF93CF93E0
:1024DE000E94D22065E081E00E949A2280918601BE
:1024EE008F93809185018F93809184018F9380913A
:1024FE0083018F93EF92DF92CF92DF93CF930E945F
:10250E00E621DF93CF930E94D2202FEF8DE399E443
:10251E00215080409040E1F700C000000E94A422AC
:10252E0060E080E00E949A2220E130E04BED51E025
:10253E0060E0CE010E942221DF93CF930E94D22031
:10254E0060E081E00E949A2226E030E04AE152E00B
:10255E0060E0CE010E942221DF93CF930E94D22011
:10256E0064E081E00E949A22809182018F93809193
:10257E0081018F93809180018F9380917F018F9342
:10258E00EF92DF92CF92DF93CF930E94E621DF93FB
:10259E00CF930E94D22022E030E040E252E060E091
:1025AE00CE010E942221DF93CF930E94D2208FEF83
:1025BE009DE329E4815090402040E1F700C00000E7
:1025CE008DB79EB780960FB6F8949EBF0FBE8DBF87
:1025DE000E94A42260E080E00E949A2220E130E076
:1025EE004BED51E060E0CE010E942221DF93CF93AC
:1025FE000E94D22060E081E00E949A2225E030E025
:10260E0042E252E060E0CE010E942221DF93CF939E
:10261E000E94D22064E081E00E949A2280915E01A5
:10262E008F9380915D018F9380915C018F93809148
:10263E005B018F938F927F926F92DF93CF930E9465
:10264E00E621DF93CF930E94D22025E030E04CE2CA
:10265E0052E060E0CE010E942221DF93CF930E94D0
:10266E00D2202FEF8DE399E4215080409040E1F786
:10267E0000C000000E94A4228DB79EB741960FB6EF
:10268E00F8949EBF0FBE8DBF0E942C22892B09F09D
:10269E002ACEDF91CF91EF90DF90CF908F907F90E9
:0426AE006F9008958C
:1026B2004F925F926F927F928F929F92AF92BF9250
:1026C200CF92DF92EF92FF920F931F93CF93DF93FC
:1026D20080918F01909190010197029708F02AC191
:1026E2000AE010E00E94A42280E00E9496219093CA
:1026F20015018093140190939E0180939D0181E0C6
:102702000E949621909315018093140190939C014D
:1027120080939B0182E00E94962190931501809301
:102722001401909394018093930183E00E94962177
:10273200EC01909315018093140190939201809380
:10274200910160919D0170919E01072E000C880BF2
:10275200990B0E94FD1E20E030E040EA50E40E9406
:10276200192320E030EC4FE754E40E9415236B015B
:102772007C0160937301709374018093750190934F
:10278200760160919B0170919C01072E000C880BD1
:10279200990B0E94FD1E20E030E040EA50E40E94C6
:1027A200192320E030EC4FE754E40E9415232B015B
:1027B2003C0160936F01709370018093710190935B
:1027C20072016091930170919401072E000C880BA5
:1027D200990B0E94FD1E20E030E040EA50E40E9486
:1027E200192320E030EC4FE754E40E9415234B01FB
:1027F2005C0160937B0170937C0180937D019093D7
:102802007E01BE01DD0F880B990B0E94FD1E20E0A8
:1028120030E040EA50E40E94192320E030EC4FE718
:1028220054E40E941523609377017093780180939A
:10283200790190937A0120918F013091900121309A
:10284200310569F5A30192010E94CF222B013C01BF
:10285200A7019601C501B4010E94CF229B01AC01E0
:10286200C301B2010E94152320E030E048EC52E49B
:102872000E9419239B01AC01609183017091840134
:1028820080918501909186010E94D02260938301FC
:1028920070938401809385019093860131C0223028
:1028A200310571F59B01AC01C301B2010E94CF2237
:1028B2002B013C01A5019401C701B6010E94CF2260
:1028C2009B01AC01C301B2010E94152320E030E05C
:1028D20048EC52E40E9419239B01AC0160918301F0
:1028E2007091840180918501909186010E94D0228D
:1028F2006093830170938401809385019093860194
:102902000150110909F0EECE20E030E040E251E43E
:10291200609183017091840180918501909186017B
:102922000E94152360938301709384018093850133
:102932009093860180918F0190919001039741F4C9
:1029420010928301109284011092850110928601E7
:102952000E94A42260E080E00E949A222EE030E0F1
:102962004CE751E060E080E291E00E942221C0E267
:10297200D1E0DF93CF930E94D22060E081E00E94F9
:102982009A22809186018F93809185018F93809105
:1029920084018F93809183018F9384E291E0A0E080
:1029A200AF939F938F93DF93CF930E94E621DF93A0
:1029B200CF930E94D2202FEF81E19AE721508040ED
:1029C2009040E1F700C000008DB79EB70D960FB69C
:1029D200F8949EBF0FBE8DBFDF91CF911F910F91D3
:1029E200FF90EF90DF90CF90BF90AF909F908F902D
:0A29F2007F906F905F904F90089562
:1029FC00A4E1B0E0E4E0F5E10C94B62098878F8375
:102A0C007A8369835C8B4B8B122FDB011296ED91D1
:102A1C00FC91139714962D913C9115973E832D8321
:102A2C00ED90FC90119716962D903C901797F7FD12
:102A3C0003C0E894E1F802C0E1E0F0E0C701807166
:102A4C0099279A878987E4FE1FC0AB89BC892C9192
:102A5C0011963C91119712964C91129713965C918A
:102A6C00139714966C91149715967C91159716964E
:102A7C008C91169717969C91A0E00E94832221F0CE
:102A8C008D819E81029702C08D819E819701287055
:102A9C0033273C872B87E3FC0197AB89BC894C908F
:102AAC0011965C90119712966C90129713967C90DD
:102ABC00139714968C90149715969C9015971696C0
:102ACC00AC9016971796BC90A981BA811896CD90A8
:102ADC00DC901997B1E0CB1AD108D101AC0DBD1D1A
:102AEC001C929C838B839F01281B390B3E872D875F
:102AFC00C70182709927988B8F87812F012E000C2C
:102B0C00990BDC01A154B109BA8BA98B32E0C31625
:102B1C00D10430F489859A85892B09F04CC073C097
:102B2C009201A301B401C501A0E00E94832281F1AE
:102B3C00B1E0CB1AD108C2018F7099278A30910568
:102B4C0014F4C09602C0895A9F4FE989FA897A9782
:102B5C0048F49C012062215631092A31310510F4C8
:102B6C000E94B722F101EC0DFD1D80832B813C816D
:102B7C00215031093C832B839201A301B401C5017F
:102B8C0004E00E949A2029013A014B015C01BECF5E
:102B9C008D859E85AB81BC818A0F9B1F18161906EB
:102BAC003CF21A161B060CF0B5CFEF85F889EF2B0B
:102BBC0009F0BECFAFCFAB89BC892C9111963C915B
:102BCC00119712964C91129713965C911397149639
:102BDC006C91149715967C91159716968C91169767
:102BEC0017969C91A0E00E94832269F0F101EC0DF4
:102BFC00FD1D31971083B2E0CB1AD108F101EC0D19
:102C0C00FD1D80E38083EB85FC85EF2B41F0F1E02B
:102C1C00CF1AD108F101EC0DFD1D80E28083A98152
:102C2C00BA8118962D913C911997215031092C1984
:102C3C003D09C20CD31CA60160E80D811E818F8159
:102C4C0098850E94DE1D9C01EF81F8858081918121
:102C5C0090FF09C0A981BA8112968D919C9113970E
:102C6C00821793070CF4C9016496E2E10C94ED20F1
:102C7C000F931F93CF93DF93FC01D9016838710533
:102C8C0059F194F461387105D9F12CF4603871055F
:102C9C0009F483C0A5C06238710509F464C06438B6
:102CAC00710509F47AC09CC0603A710509F453C0EF
:102CBC002CF46039710509F456C092C0603C710562
:102CCC0009F443C0603F710509F08AC0CD91DC91D5
:102CDC001197CE01039677C0CD91DC911197CE015F
:102CEC0002968D939C93452B39F09881892F880FF0
:102CFC00880B9083818361C088818083118269C035
:102D0C00CD91DC911197CE0104968D939C93452B1C
:102D1C0099F088819981AA81BB81AC01BD01770FA3
:102D2C00440B542FBA0180839183A283B3834483D1
:102D3C004583468347832EC0088119812A813B81B4
:102D4C00008311832283338346C0CD91DC9111978C
:102D5C00CE01029638C0CD91DC911197CE0102962E
:102D6C008D939C9323C0CD91DC911197CE01089645
:102D7C008D939C93788169815A814B813C812D8103
:102D8C009E818F8170836183528343833483258337
:102D9C009683878381E090E025C0CD91DC911197DB
:102DAC00CE0102968D939C93452B79F099812881C5
:102DBC00892F880F880B208391838283838384835C
:102DCC0085838683E6CF8D939C930881198100833C
:102DDC001183128213821482158216821782DACF23
:0E2DEC0080E090E0DF91CF911F910F9108954C
:102DFA00ADE0B0E0E3E0F7E10C94B6209A8789876A
:102E0A007C836B83FA01DB011296CD90DC901397D9
:102E1A0014968D919C9115979E838D83ED90FC90CD
:102E2A001197FA82E98216960D90BC91A02DB88767
:102E3A00AF83208031804280538064807580868091
:102E4A0097808101B42DF52DE62D7B868C869D8693
:102E5A009101A201B301C401A0E00E9483224CF4B3
:102E6A000E943C228901B42FF52FE62F7B878C879D
:102E7A009D87D7FC04C0E894E1F8FA82E9829101BF
:102E8A00A201B301C401A0E0ED80FE800E9483226A
:102E9A001CF0898182FF04C081E0E81AF10805C0AC
:102EAA0083FF03C091E0E91AF108CE0101965C01A3
:102EBA008AE0C82ED12C2B2F3F2F4E2F5B856C8595
:102ECA007D858B819C810E94BC17FC019101A20126
:102EDA00B301C401A0E00E9483221CF0898182FF11
:102EEA0012C031970F8118850E0F1F1F9101A20181
:102EFA00B301C401A0E00E94832214F08BE201C056
:102F0A008DE2D80108C083FF07C03197AF81B88529
:102F1A00AE0FBF1F80E28C93E980FA80AB81BC813F
:102F2A0018962D913C911997215031092E1B3F0B70
:102F3A008F819885E80FF91FAF0160E80D811E8126
:102F4A0089859A850E94DE1D9C01A985BA858D9185
:102F5A009C9190FF07C0EB81FC818281938182174B
:0E2F6A0093070CF4C9012D96E2E10C94ED20C2
:102F7800A2E1B0E0E2ECF7E10C94B620FC010A8B88
:102F8800912E822E732E642E552E462E7D83CC864E
:102F9800DA86B986A886268137813F832E83D501B4
:102FA8008D919C91228133810084F185E02D3197A8
:102FB80037FF02C021E030E04E815F81E40FF51F4A
:102FC8001082FC83EB831701A1E0B0E0BA83A983E8
:102FD800F901EE19FF09FE87ED879C01227033275E
:102FE800388B2F873A85330F330B398BEB81FC8174
:102FF8002E813F81E21BF30B4B815C814217530703
:1030080009F44FC02A89392D482D572D662D752D65
:10301800842D9D81A0E00E94832299F14C854B87E5
:10302800A42EBA84C988DC2CEC2CFC2C0C2D1C2D6D
:103038002A89392D482D572D662D752D842D9D8172
:103048000E946922C90129839A83805DAB81BC8172
:103058008E93BC83AB83B1E02B1A31082A89392DB2
:10306800482D572D662D752D842D9D810E946B222C
:103078002A8B932E842E752E662E572E482E9D83CE
:10308800B5CF8D859E85820D931D1816190634F2CD
:103098001214130444F48F859889892B09F0BECF44
:1030A80002C0E0E0F0E0A981BA81AB2B41F4A88529
:1030B800B9858D919C9111978F7E8D939C93CF01AB
:0830C8006296E2E10C94ED2098
:1030D0004F925F926F927F928F929F92AF92BF9228
:1030E000CF92DF92EF92FF92CF93DF93CDB7DEB70F
:1030F00028970FB6F894DEBF0FBECDBF6B017C01E1
:10310000DC01CB0147E1B695A795979587954A9540
:10311000D1F799278F579109873191059CF597FD34
:1031200036C088248A94982C3FE7A32EB12C04C083
:10313000B594A794979487948A95D2F7D501C40142
:103140008C219D21AE21BF21892B8A2B8B2BD1F085
:1031500020E030E040E85BE7C701B6010E94D022E2
:103160006D837E838F839887F7FE04C0C80CD91CBB
:10317000EA1CFB1C80949094A094B094C820D920A1
:10318000EA20FB205C2D4D2D3E2D2F2D21C020E06F
:1031900030E040E85BE7C701B6010E94D0226983B6
:1031A0007A838B839C83F7FE0FC0D701C601880FFB
:1031B000991FAA1FBB1F892B8A2B8B2B19F350E059
:1031C00040E030E82FEB04C050E040E030E020E089
:1031D000652F742F832F922F28960FB6F894DEBF99
:1031E0000FBECDBFDF91CF91FF90EF90DF90CF90DA
:1031F000BF90AF909F908F907F906F905F904F9017
:0232000008952F
:10320200CF92DF92EF92CF93DF93DC01F901643822
:10321200710509F43FC064F46138710531F1623817
:10322200710509F446C06038710509F05CC032C00E
:1032320060397105F1F194F46838710509F053C0F1
:10324200C081D181CE01039691838083C880D980C9
:10325200EA80F601CD92DC92408342C0603A710569
:10326200C9F0603C7105B1F03EC0C081D181CE0190
:10327200039691838083C880D980EA80F601CD923B
:10328200DC92052E000C660B770B40835183628320
:10329200738326C0C081D181CE010396918380833E
:1032A200C880D980EA80F601CD92DC9251834083B6
:1032B20017C0C081D181CE01039691838083C880DB
:1032C200D980EA80F601CD92DC9251834083852F2A
:1032D200880F880B82838383848385838683878395
:1032E20081E090E002C080E090E0DF91CF91EF902A
:0632F200DF90CF9008956B
:1032F80081E090E09093A00180939F0110929E013D
:1033080010929D0110929C0110929B0110929A01BB
:1033180010929901109287011092880110928901E8
:1033280010928A01109298011092970110929601BA
:1033380010929501109294011092930110929201AB
:10334800109291019093900180938F0110928301C4
:1033580010928401109285011092860110927F01CB
:1033680010928001109281011092820110927B01CB
:1033780010927C0110927D0110927E0110927701CB
:10338800109278011092790110927A0110926B01D3
:1033980010926C0110926D0110926E0110926701EB
:1033A800109268011092690110926A0110926301EB
:1033B80010926401109265011092660110925F01EB
:1033C80010926001109261011092620110925B01EB
:0E33D80010925C0110925D0110925E0108954A
:1033E60010C00E94DD2258F00E94D62240F029F437
:1033F6005F3F29F00C94F82251110C94E5220C94AD
:103406001D230E94382068F39923B1F3552391F3C5
:10341600951B550BBB27AA2762177307840738F03D
:103426009F5F5F4F220F331F441FAA1FA9F335D09A
:103436000E2E3AF0E0E832D091505040E695001C4E
:10344600CAF72BD0FE2F29D0660F771F881FBB1F08
:10345600261737074807AB07B0E809F0BB0B802DE6
:10346600BF01FF2793585F4F3AF09E3F510578F012
:103476000C94F8220C94E5225F3FE4F3983ED4F3D3
:10348600869577956795B795F7959F5FC9F7880FE6
:10349600911D9695879597F90895E1E0660F771F38
:1034A600881FBB1F621773078407BA0720F0621BC9
:0E34B600730B840BBA0BEE1F88F7E095089598
:1034C4000FC00E94D62238F00E94DD2220F09523FE
:1034D40011F00C94F8220C941D2311240C94E52271
:1034E4000E94382070F3959FC1F3950F50E0551F4B
:1034F400629FF001729FBB27F00DB11D639FAA2745
:10350400F00DB11DAA1F649F6627B00DA11D661F93
:10351400829F2227B00DA11D621F739FB00DA11DB4
:10352400621F839FA00D611D221F749F3327A00D6E
:10353400611D231F849F600D211D822F762F6A2F0A
:1035440011249F5750409AF0F1F088234AF0EE0F6F
:10355400FF1FBB1F661F771F881F91505040A9F79C
:103564009E3F510580F00C94F8220C94E5225F3FB5
:10357400E4F3983ED4F3869577956795B795F795D8
:10358400E7959F5FC1F7FE2B880F911D9695879550
:0435940097F9089506
:10359800A2E0B0E0E2EDFAE10C94B6201C014B0188
:1035A800FA01DB0112962D913C91139714964D90D8
:1035B8005C9015978D919C9111979A8389831696A3
:1035C8006D907C90179737FD03C08D7F9A83898310
:1035D80000811181228133814481558166817781FF
:1035E800FE0131965F0188E0C82ED12C7201C4011A
:1035F8000E94BC17298124FF06C00197F301E80F38
:10360800F91F20E32083298123FF06C00197F301D6
:10361800E80FF91F20E22083E980FA80D401189688
:103628002D913C91199721503109281B390B860D92
:10363800971DAC0160E88201C1010E94DE1D9C015A
:10364800F1018081918190FF08C0D40112968D917B
:103658009C911397821793070CF4C9012296E2E113
:043668000C94ED20B1
:10366C0011C00E94D62238F00E94DD2220F039F4DD
:10367C009F3F19F426F40C941D230EF4E095E7FB00
:10368C000C94F822E92F0E94382058F3BA176207DD
:10369C0073078407950720F079F4A6F50C94E422BF
:1036AC000EF4E0950B2EBA2FA02D0B01B901900151
:1036BC000C01CA01A0011124FF27591B99F0593F95
:1036CC0050F4503E68F11A16F040A22F232F342FDD
:1036DC004427585FF3CF469537952795A795F0402B
:1036EC005395C9F77EF41F16BA0B620B730B840B40
:1036FC00BAF09150A1F0FF0FBB1F661F771F881FF8
:10370C00C2F70EC0BA0F621F731F841F48F487954F
:10371C0077956795B795F7959E3F08F0B0CF939541
:0E372C00880F08F09927EE0F9795879508955E
:10373A00A2E0B0E0E3EAFBE10C94B6203C014B01C5
:10374A00FA01DB0112962D913C91139714964D9034
:10375A005C9015978D919C9111979A8389831696FF
:10376A002D903C90179737FD03C08D7F9A838983EC
:10377A00008111812281338144815581668177815B
:10378A00FE0131965F018AE0C82ED12C7201C40174
:10379A000E94BC17E980FA80D40118962D913C91B9
:1037AA00199721503109281B390B820D931DAC0141
:1037BA0060E88201C3010E94DE1D9C01F301808141
:1037CA00918190FF08C0D40112968D919C91139714
:1037DA00821793070CF4C9012296E2E10C94ED20BA
:1037EA00CF93DF9382E090E09093900180938F01D2
:1037FA0084E085B98FE39CE90197F1F700C00000E6
:10380A0080918F0190919001039741F488E085B9E6
:10381A008FE39CE90197F1F700C000000E94A422FF
:10382A0060E080E00E949A222AE030E04AED50E00F
:10383A0060E080E291E00E942221C0E2D1E0DF93C1
:10384A00CF930E94D22060E081E00E949A222AE06F
:10385A0030E044EE50E060E0CE010E942221DF9386
:10386A00CF930E94D2202FEF83ED90E32150804026
:10387A009040E1F700C000000F900F900F900F905A
:06388A00DF91CF910895CB
:10389000AF92BF92CF92DF92EF92FF920F931F935E
:1038A000CF93DF937C010E94A422F70180818823BB
:1038B00061F03196A12CB12C2FEFA21AB20A81919E
:1038C0008111FACFBB201CF42AC0A12CB12CC0E07E
:1038D000D0E0650180E1C81AD108CE014096A81653
:1038E000B90614F4860101C08E0160E080E00E94F8
:1038F0009A22C701800F911F9F938F930E94D2201D
:103900009FEFE7E8F3E19150E040F040E1F700C0BD
:10391000000021960F900F90AC16BD06F4F6DF91D3
:10392000CF911F910F91FF90EF90DF90CF90BF90BC
:04393000AF900895B7
:103934006F927F928F92EF92FF920F931F93CF9388
:10394400DF93CDB7DEB761970FB6F894DEBF0FBE35
:10395400CDBFFE01319651E1DF011D925A95E9F781
:10396400A2E0B1E0BA83A9839C838B8377FF09C06B
:103974008FE490E090934901809348018FEF9FEF8B
:1039840019C03901842E7C01615071097F836E83D3
:103994009801682DA301CF010E943B2148855985D8
:1039A4002E813F814217530708F49A01F701E20F71
:1039B400F31F108261960FB6F894DEBF0FBECDBF21
:1039C400DF91CF911F910F91FF90EF908F907F9097
:0439D4006F90089553
:1039D8006F927F928F92EF92FF920F931F93CF93E4
:1039E800DF93CDB7DEB761970FB6F894DEBF0FBE91
:1039F800CDBFFE01319651E1DF011D925A95E9F7DD
:103A0800A2E0B1E0BA83A9839C838B8377FF09C0C6
:103A18008FE490E090934901809348018FEF9FEFE6
:103A280019C03901842E7C01615071097F836E832E
:103A38009801682DA301CF010E945321488559851B
:103A48002E813F814217530708F49A01F701E20FCC
:103A5800F31F108261960FB6F894DEBF0FBECDBF7C
:103A6800DF91CF911F910F91FF90EF908F907F90F2
:043A78006F900895AE
:103A7C0088249924F401E401B0E49F93AA279A15B1
:103A8C008B049C04ED05FE05CF05D007A10798F427
:103A9C00AD2FDC2FCF2FFE2FE92D982C892E982FB0
:103AAC00872F762F652F542F432F322F2227B85074
:103ABC0031F7BF9127C01B2EBF91BB27220F331F9D
:103ACC00441F551F661F771F881F991F881C991C40
:103ADC00EE1FFF1FCC1FDD1FAA1FBB1F8A149B04E8
:103AEC00EC05FD05CE05DF05A007B10748F08A18E7
:103AFC009B08EC09FD09CE09DF09A00BB10B216075
:103B0C001A94E1F62EF49401AF01BE01CD01000C24
:023B1C0008950A
:103B1E00CF92DF92EF92DC0190E0292F30E0220F5E
:103B2E00331F6901032E000CEE086E2DA6014F5CAB
:103B3E005D4F6F4F6A01E62EFA018491E7FC80819A
:103B4E0081110DC02F5F3F4F032E000C440B2F5CD5
:103B5E003D4F4F4FF901849147FD808124C0CD9098
:103B6E00DD90EC901297F6014491E7FC40818413AE
:103B7E0015C02F5F3F4F032E000C440B2F5C3D4FA3
:103B8E004F4FF901949147FD90815FEFC51AD50A09
:103B9E00E50ACD92DD92EC92129701C09F5F9B30A9
:0E3BAE0008F4BBCF892FEF90DF90CF900895E1
:103BBC006F927F928F92AF92BF92CF92DF92EF92E1
:103BCC00FF920F931F93CF93DF935C013A01862EE4
:103BDC00E901670181E0C822DD24E0FC03C0201765
:103BEC00310758F09E01682DA301C5010E94B11F39
:103BFC00C017D10710F0CE0118C07801EC1AFD0ADD
:103C0C00E114F10449F0B50180E290E00E94731ECA
:103C1C0081E0E81AF108F4CFCD2831F49E01682D2B
:103C2C00A301C5010E94B11FC801DF91CF911F9163
:103C3C000F91FF90EF90DF90CF90BF90AF908F904F
:063C4C007F906F900895C7
:103C5200A3E8B0E0EFE2FEE10C94BC205C01490174
:103C6200CF57DF4F488359836A83C158D040C12C54
:103C7200D12CCF57DF4F2881C158D040CE57DF4FCC
:103C82009881C258D040CD57DF4F8881C358D04069
:103C9200E22FF92F949187FD90819923E9F0740125
:103CA200860120E830E0AE014F5F5F4FBE016F57E3
:103CB2007F4FC5010E94E20C8C0D9D1D8C159D0548
:103CC2004CF48FE490E090934901809348018FEF88
:103CD2009FEF03C06C01CDCFC601CD57DF4FECE0A3
:043CE2000C94F3202B
:103CE6000F931F93CF93DF93DB012D913C91119797
:103CF60030FF25C017964D915C91189715962D911A
:103D06003C9116974217530778F41296ED91FC9161
:103D16001397808312962D913C9113972F5F3F4FF7
:103D260013963C932E93129717962D913C911897C4
:103D36002F5F3F4F18963C932E93179715C01D96ED
:103D4600ED91FC911E97309719F48FEF9FEF0CC001
:103D56008B01EC010995892BC1F7F80187819085C4
:103D6600019690878783CE01DF91CF911F910F91A6
:023D76000895AE
:103D78008AB18C6F8AB98BB183708BB98FE59AEE53
:103D88000197F1F700C0000083E00E947A208FE0DD
:103D980090E40197F1F700C0000083E00E947A20C8
:103DA8008FE891E00197F1F700C0000083E00E94DE
:103DB8007A2082E00E947A2088E20E94112395EC02
:103DC8009A95F1F7000084E08093A1018CE00E94AD
:103DD800112385EC8A95F1F7000081E00E941123F8
:0E3DE8008FE39FE10197F1F700C000000895FE
:103DF600E89409C097FB3EF490958095709561957F
:103E06007F4F8F4F9F4F9923A9F0F92F96E9BB2734
:103E16009395F695879577956795B795F111F8CFB0
:103E2600FAF4BB0F11F460FF1BC06F5F7F4F8F4F1B
:103E36009F4F16C0882311F096E911C0772321F011
:103E46009EE8872F762F05C0662371F096E8862FA9
:103E560070E060E02AF09A95660F771F881FDAF700
:0A3E6600880F9695879597F9089547
:103E70006F927F928F92CF92DF92EF92FF920F9389
:103E80001F93CF93DF936C01FB013901842EC8018E
:103E9000C281D38104811581E080F180232B242B02
:103EA00031F427E6622E22E0722E20E0822E009767
:103EB00021F4882DB3010E946B21D7FD04C0C817DF
:103EC000D90708F4CE019C01682DA301C6010E9408
:103ED000DE1DDF91CF911F910F91FF90EF90DF904A
:0A3EE000CF908F907F906F900895AF
:103EEA00DC012D913D914C911297F901849147FD86
:103EFA0080818A3221F080E090E07AE011C02F5F61
:103F0A003F4F4F4F2D933D934C93DB01ED91FC9125
:103F1A001197CF0102968D939C9380819181089588
:103F2A002D913D914C911297F901549147FD508181
:103F3A0050535A3080F4789FF001799FF00D112484
:103F4A00CF01850F911D2F5F3F4F4F4F2D933D930B
:083F5A004C931297E5CF089586
:103F62006F927F928F92CF92DF92EF920F931F9375
:103F7200CF93DF938C016A01E62EE9013A01862E86
:103F8200620E731E811C37FD8A94C614D704E8049E
:103F920079F0F6018491E7FC8081B801082E000CCB
:103FA200990B0E94731E8FEFC81AD80AE80AEDCF48
:103FB200CE01DF91CF911F910F91EF90DF90CF90C3
:083FC2008F907F906F9008952D
:103FCA000E94402088F09F5798F0B92F9927B7513F
:103FDA00B0F0E1F0660F771F881F991F1AF0BA95A3
:103FEA00C9F714C0B13091F00E94E422B1E00895FB
:103FFA000C94E422672F782F8827B85F39F0B93FED
:10400A00CCF3869577956795B395D9F73EF4909555
:0E401A008095709561957F4F8F4F9F4F089551
:10402800990F0008550FAA0BE0E8FEEF16161706C1
:10403800E807F907C0F012161306E407F50798F029
:10404800621B730B840B950B39F40A2661F0232B42
:10405800242B252B21F408950A2609F4A140A695BE
:084068008FEF811D811D0895F9
:1040700057FD9058440F551F59F05F3F71F0479519
:10408000880F97FB991F61F09F3F79F087950895FE
:10409000121613061406551FF2CF4695F1DF08C01D
:1040A000161617061806991FF1CF8695710561053A
:0440B00008940895D3
:1040B400FA0160387105CCF0623871051CF0633880
:1040C400710599F4A081B1819D012C5F3F4F31832B
:1040D40020834D915D916D917C91FC0140835183CE
:1040E4006283738381E090E0089580E090E0089516
:1040F40080FD02C05C9801C05C9A81FD02C05D989D
:1041040001C05D9A82FD02C05E9801C05E9A83FD83
:1041140002C05F9801C05F9A5B985B9A5B988FEAD4
:0C41240094E00197F1F700C0000008953E
:1041300097FB10F8169400080F93083098F0085079
:10414000232F342F452F562F672F782F892F902D0F
:10415000F4CF0594979587957795679557954795EB
:0C416000379527950A95AAF70F9108954E
:10416C002F923F924F925F926F927F928F929F927B
:10417C00AF92BF92CF92DF92EF92FF920F931F9369
:10418C00CF93DF93CDB7DEB7CA1BDB0B0FB6F8941A
:08419C00DEBF0FBECDBF099488
:1041A4000F931F93CF93DF93CDB7DEB7FE013796FE
:1041B4002191319140E88F0161E170E08AE491E05E
:1041C4000E949A1C8AE491E00E944C22DF91CF91D4
:0641D4001F910F910895F8
:1041DA002A88398848885F846E847D848C849B848D
:1041EA00AA84B984C884DF80EE80FD800C811B819B
:1041FA00AA81B981CE0FD11D0FB6F894DEBF0FBECA
:06420A00CDBFED01089597
:10421000ECE7F0E080818064808380818F77808309
:1042200080818F7D8083EAE7F0E0808181608083F8
:1042300080818260808380818460808380818068C7
:0442400080830895DA
:10424400CF92DF92EF926A01E62EDC01280F391F2C
:10425400A217B30751F0F6014491E7FC40814D9356
:104264004FEFC41AD40AE40AF3CFEF90DF90CF9053
:024274000895AB
:10427600A2E0B0E0E1E4F1E20C94C4208C013A83C0
:1042860029839E012F5F3F4F0E94291EF80120813E
:1042960024FF02C08FEF9FEF2296E4E00C94FB20F0
:1042A600A2E0B0E0E9E5F1E20C94C4208C013A8387
:1042B60029839E012F5F3F4F0E94291EF80120810E
:1042C60024FF02C08FEF9FEF2296E4E00C94FB20C0
:1042D600CF92DF92EF926B01E82EA82FCB01FC0163
:1042E6002491A7FD2081222319F00196A11DF7CF65
:0C42F6008C199D09EF90DF90CF90089587
:10430200CF93C82F662319F0613019F003C05A9871
:1043120001C05A9A8C2F82958F700E947A208C2F1E
:0A4322008F700E947A20CF91089559
:10432C00ECE7F0E09081907F8F70892B8083EAE737
:10433C00F0E0808180648083808186FDFDCF809158
:08434C007800909179000895BA
:1043540020918F01309190012130310561F022309C
:10436400310539F42FEF33E0A901481B590BCA0179
:08437400089580E090E0089537
:10437C0097FB072E16F4009407D077FD09D00E9406
:10438C00D22107FC05D03EF4909581959F4F08955E
:08439C00709561957F4F0895B3
:1043A400AA1BBB1B51E107C0AA1FBB1FA617B70757
:1043B40010F0A61BB70B881F991F5A95A9F7809573
:0843C4009095BC01CD010895A4
:1043CC00A0E0B0E0ECEEF1E20C94C6209E01265F7A
:1043DC003F4F4F81588569858D819E810E94772240
:0643EC00E2E00C94FD204C
:1043F2001D9B0CC08FE39CE90197F1F700C0000000
:1044020083B185FB882780F990E0089580E090E0F1
:0244120008950B
:104414000E94BC1E0E94C8220E947C190E94F51BA7
:104424000E944E0F0E9459130E943A010E945F118C
:02443400F5CFC2
:10443600092E0394000C11F4882352F0BB0F40F4AC
:10444600BF2B11F460FF04C06F5F7F4F8F4F9F4FEC
:024456000895C7
:104458001C9B0BC08FE39CE90197F1F700C000009B
:1044680083B18295817090E0089580E090E008958E
:1044780060957095809590953095409550952195CB
:104488003F4F4F4F5F4F6F4F7F4F8F4F9F4F089555
:10449800CF93DF93EC018881882331F021960E9425
:0E44A8000D2389918111FBCFDF91CF910895F3
:1044B6009A01462FDC01F901549147FD50815D9325
:0C44C6002F5F3F4F4F4F5111F6CF08956C
:1044D200689401C0E8948F929F92CF93DF930E94D9
:0C44E2003E1DDF91CF919F908F900895B8
:1044EE000F931F9389019A01462F6FEF7FE70E946A
:0844FE00EC1C1F910F910895C1
:104506000024A7FD00942A173005400550056005D4
:08451600700580059005089571
:10451E00EC010E9425230E942423CE010E94262313
:06452E00CE010E942223D1
:10453400E82FF0E0E557FE4F8081860F80680E94E7
:0445440011230895A2
:1045480081E00E9411238FE39FE10197F1F700C0FA
:0445580000000895C2
:10455C00FC01480F591FE417F50711F06193FBCFCD
:02456C000895B0
:10456E009C01215631092A31310510F48F75992796
:02457E0008959E
:104580009C01215431092A31310508F480620895D3
:0E4590000E94F2220E94FE220E94082108953D
:0E459E005058BB27AA270E94361B0C941B22E4
:0E45AC0000240A94161617061806090608952C
:0E45BA0000240A94121613061406050608952E
:0E45C800E894BB2766277727CB0197F9089563
:0E45D6000E94E51F6894B1110C94E52208952F
:0C45E400E1E6F0E080E88083108208959A
:0C45F00097F99F6780E870E060E0089594
:0A45FC008FE084B92C9A2D9A0895DF
:0A4606000E94142008F481E00895DA
:0A4610000E94142008F48FEF0895B3
:08461A0061E00E948121089576
:0846220060E00E94812108956F
:08462A000E94F3190C941B22FD
:084632000E94621A0C941B2285
:06463A009FEF80EC0895E3
:044640000C940000D6
:044644000E946B0065
:024648000895D3
:02464A000895D1
:02464C000895CF
:04464E0000401454C0
:02465200010065
:00000001FF
